{
  "contractName": "Election",
  "abi": [
    {
      "inputs": [],
      "stateMutability": "nonpayable",
      "type": "constructor"
    },
    {
      "inputs": [
        {
          "internalType": "address",
          "name": "",
          "type": "address"
        }
      ],
      "name": "admins",
      "outputs": [
        {
          "internalType": "bool",
          "name": "",
          "type": "bool"
        }
      ],
      "stateMutability": "view",
      "type": "function",
      "constant": true
    },
    {
      "inputs": [
        {
          "internalType": "bytes32",
          "name": "",
          "type": "bytes32"
        }
      ],
      "name": "candidates",
      "outputs": [
        {
          "internalType": "bool",
          "name": "",
          "type": "bool"
        }
      ],
      "stateMutability": "view",
      "type": "function",
      "constant": true
    },
    {
      "inputs": [],
      "name": "host",
      "outputs": [
        {
          "internalType": "address",
          "name": "",
          "type": "address"
        }
      ],
      "stateMutability": "view",
      "type": "function",
      "constant": true
    },
    {
      "inputs": [
        {
          "internalType": "bytes32",
          "name": "",
          "type": "bytes32"
        }
      ],
      "name": "voteTally",
      "outputs": [
        {
          "internalType": "uint256",
          "name": "",
          "type": "uint256"
        }
      ],
      "stateMutability": "view",
      "type": "function",
      "constant": true
    },
    {
      "inputs": [
        {
          "internalType": "address",
          "name": "",
          "type": "address"
        }
      ],
      "name": "votes",
      "outputs": [
        {
          "internalType": "bytes32",
          "name": "",
          "type": "bytes32"
        }
      ],
      "stateMutability": "view",
      "type": "function",
      "constant": true
    },
    {
      "inputs": [
        {
          "internalType": "bytes32",
          "name": "name",
          "type": "bytes32"
        }
      ],
      "name": "vote",
      "outputs": [
        {
          "internalType": "bool",
          "name": "success",
          "type": "bool"
        }
      ],
      "stateMutability": "nonpayable",
      "type": "function"
    },
    {
      "inputs": [
        {
          "internalType": "address",
          "name": "a",
          "type": "address"
        }
      ],
      "name": "addAdmin",
      "outputs": [],
      "stateMutability": "nonpayable",
      "type": "function"
    },
    {
      "inputs": [
        {
          "internalType": "bytes32",
          "name": "candidate",
          "type": "bytes32"
        }
      ],
      "name": "addCandidate",
      "outputs": [],
      "stateMutability": "nonpayable",
      "type": "function"
    }
  ],
  "bytecode": "0x608060405234801561001057600080fd5b50336000806101000a81548173ffffffffffffffffffffffffffffffffffffffff021916908373ffffffffffffffffffffffffffffffffffffffff16021790555061068f806100606000396000f3fe608060405234801561001057600080fd5b50600436106100885760003560e01c8063a69beaba1161005b578063a69beaba146101a1578063d82d6ffe146101e7578063d8bff5a514610229578063f437bc591461028157610088565b80631a0478d51461008d578063230d6ed8146100d3578063429b62e514610101578063704802751461015d575b600080fd5b6100b9600480360360208110156100a357600080fd5b81019080803590602001909291905050506102cb565b604051808215151515815260200191505060405180910390f35b6100ff600480360360208110156100e957600080fd5b81019080803590602001909291905050506102eb565b005b6101436004803603602081101561011757600080fd5b81019080803573ffffffffffffffffffffffffffffffffffffffff1690602001909291905050506103c7565b604051808215151515815260200191505060405180910390f35b61019f6004803603602081101561017357600080fd5b81019080803573ffffffffffffffffffffffffffffffffffffffff1690602001909291905050506103e7565b005b6101cd600480360360208110156101b757600080fd5b810190808035906020019092919050505061049b565b604051808215151515815260200191505060405180910390f35b610213600480360360208110156101fd57600080fd5b8101908080359060200190929190505050610604565b6040518082815260200191505060405180910390f35b61026b6004803603602081101561023f57600080fd5b81019080803573ffffffffffffffffffffffffffffffffffffffff16906020019092919050505061061c565b6040518082815260200191505060405180910390f35b610289610634565b604051808273ffffffffffffffffffffffffffffffffffffffff1673ffffffffffffffffffffffffffffffffffffffff16815260200191505060405180910390f35b60036020528060005260406000206000915054906101000a900460ff1681565b3373ffffffffffffffffffffffffffffffffffffffff166000809054906101000a900473ffffffffffffffffffffffffffffffffffffffff1673ffffffffffffffffffffffffffffffffffffffff16148061038f5750600460003373ffffffffffffffffffffffffffffffffffffffff1673ffffffffffffffffffffffffffffffffffffffff16815260200190815260200160002060009054906101000a900460ff165b61039857600080fd5b60016003600083815260200190815260200160002060006101000a81548160ff02191690831515021790555050565b60046020528060005260406000206000915054906101000a900460ff1681565b3373ffffffffffffffffffffffffffffffffffffffff166000809054906101000a900473ffffffffffffffffffffffffffffffffffffffff1673ffffffffffffffffffffffffffffffffffffffff161461044057600080fd5b6001600460008373ffffffffffffffffffffffffffffffffffffffff1673ffffffffffffffffffffffffffffffffffffffff16815260200190815260200160002060006101000a81548160ff02191690831515021790555050565b60006003600083815260200190815260200160002060009054906101000a900460ff166104cb57600090506105ff565b60036000600160003373ffffffffffffffffffffffffffffffffffffffff1673ffffffffffffffffffffffffffffffffffffffff16815260200190815260200160002054815260200190815260200160002060009054906101000a900460ff166105935760026000600160003373ffffffffffffffffffffffffffffffffffffffff1673ffffffffffffffffffffffffffffffffffffffff16815260200190815260200160002054815260200190815260200160002060008154809291906001900391905055505b81600160003373ffffffffffffffffffffffffffffffffffffffff1673ffffffffffffffffffffffffffffffffffffffff168152602001908152602001600020819055506002600083815260200190815260200160002060008154809291906001019190505550600190505b919050565b60026020528060005260406000206000915090505481565b60016020528060005260406000206000915090505481565b6000809054906101000a900473ffffffffffffffffffffffffffffffffffffffff168156fea2646970667358221220fcf30882dac8060913b1764dc33e2971728b991842e1a4380da6264ae9d0fae664736f6c63430006000033",
  "source": "// SPDX-License-Identifier: MIT\npragma solidity >=0.6.0 <0.7.0;\n\ncontract Election {\n    address public host;\n    mapping (address=>bytes32) public votes;\n    mapping (bytes32=>uint) public voteTally;\n    mapping (bytes32=>bool) public candidates;\n    mapping (address=>bool) public admins;\n\n    constructor() public {\n      host = msg.sender;\n    }\n\n    function vote(bytes32 name) public returns(bool success){\n      if (!candidates[name]) {\n        return false;\n      }\n      if (!candidates[votes[msg.sender]]) {\n        voteTally[votes[msg.sender]]--;\n      }\n      votes[msg.sender] = name;\n      voteTally[name]++;\n      return true;\n    }\n\n    function addAdmin(address a) public {\n      require(host == msg.sender);\n      admins[a] = true;\n    }\n\n    function addCandidate(bytes32 candidate) public {\n      require(host == msg.sender || admins[msg.sender]);\n      candidates[candidate] = true;\n    }\n\n\n    /*\n    function checkVoteByVoter(address voter) public returns (bytes32 candidate){\n      require(host == msg.sender || admins[msg.sender]);\n      if (!candidates[votes[voter]]) {\n        return bytes32(\"none\");\n      } else {\n        return votes[voter];\n      }\n    }\n    function checkTally(bytes32 candidate) public returns (uint tally){\n      require(candidates[candidate]);\n      return voteTally[candidate];\n    }\n    */\n}\n",
  "sourcePath": "/Users/deoxi/my-first-blockchain/contracts/Elections.sol",
  "compiler": {
    "name": "solc",
    "version": "0.6.0+commit.26b70077.Emscripten.clang"
  },
  "schemaVersion": "3.2.1",
  "updatedAt": "2020-07-07T22:50:42.158Z",
  "networkType": "ethereum",
  "devdoc": {
    "methods": {}
  },
  "userdoc": {
    "methods": {}
  }
}