{
  "contractName": "Election",
  "abi": [
    {
      "inputs": [],
      "stateMutability": "nonpayable",
      "type": "constructor"
    },
    {
      "inputs": [
        {
          "internalType": "uint256",
          "name": "",
          "type": "uint256"
        }
      ],
      "name": "candidateIDs",
      "outputs": [
        {
          "internalType": "bytes32",
          "name": "",
          "type": "bytes32"
        }
      ],
      "stateMutability": "view",
      "type": "function",
      "constant": true
    },
    {
      "inputs": [
        {
          "internalType": "bytes32",
          "name": "",
          "type": "bytes32"
        }
      ],
      "name": "candidates",
      "outputs": [
        {
          "internalType": "bool",
          "name": "",
          "type": "bool"
        }
      ],
      "stateMutability": "view",
      "type": "function",
      "constant": true
    },
    {
      "inputs": [
        {
          "internalType": "bytes32",
          "name": "",
          "type": "bytes32"
        }
      ],
      "name": "voteTally",
      "outputs": [
        {
          "internalType": "uint256",
          "name": "",
          "type": "uint256"
        }
      ],
      "stateMutability": "view",
      "type": "function",
      "constant": true
    },
    {
      "inputs": [
        {
          "internalType": "address",
          "name": "",
          "type": "address"
        }
      ],
      "name": "votes",
      "outputs": [
        {
          "internalType": "bytes32",
          "name": "",
          "type": "bytes32"
        }
      ],
      "stateMutability": "view",
      "type": "function",
      "constant": true
    },
    {
      "inputs": [
        {
          "internalType": "uint256",
          "name": "x",
          "type": "uint256"
        }
      ],
      "name": "toBytes",
      "outputs": [
        {
          "internalType": "bytes32",
          "name": "",
          "type": "bytes32"
        }
      ],
      "stateMutability": "pure",
      "type": "function",
      "constant": true
    },
    {
      "inputs": [
        {
          "internalType": "bytes32",
          "name": "name",
          "type": "bytes32"
        }
      ],
      "name": "vote",
      "outputs": [
        {
          "internalType": "bool",
          "name": "success",
          "type": "bool"
        }
      ],
      "stateMutability": "nonpayable",
      "type": "function"
    },
    {
      "inputs": [
        {
          "internalType": "address",
          "name": "a",
          "type": "address"
        }
      ],
      "name": "addAdmin",
      "outputs": [],
      "stateMutability": "nonpayable",
      "type": "function"
    },
    {
      "inputs": [
        {
          "internalType": "bytes32",
          "name": "candidate",
          "type": "bytes32"
        }
      ],
      "name": "addCandidate",
      "outputs": [],
      "stateMutability": "nonpayable",
      "type": "function"
    },
    {
      "inputs": [],
      "name": "getCandidateNextID",
      "outputs": [
        {
          "internalType": "bytes32",
          "name": "",
          "type": "bytes32"
        }
      ],
      "stateMutability": "view",
      "type": "function",
      "constant": true
    },
    {
      "inputs": [
        {
          "internalType": "address",
          "name": "voter",
          "type": "address"
        }
      ],
      "name": "checkVoteByVoter",
      "outputs": [
        {
          "internalType": "bytes32",
          "name": "candidate",
          "type": "bytes32"
        }
      ],
      "stateMutability": "view",
      "type": "function",
      "constant": true
    },
    {
      "inputs": [
        {
          "internalType": "bytes32",
          "name": "candidate",
          "type": "bytes32"
        }
      ],
      "name": "checkTally",
      "outputs": [
        {
          "internalType": "bytes32",
          "name": "",
          "type": "bytes32"
        }
      ],
      "stateMutability": "view",
      "type": "function",
      "constant": true
    },
    {
      "inputs": [
        {
          "internalType": "uint256",
          "name": "id",
          "type": "uint256"
        }
      ],
      "name": "getCandidateByID",
      "outputs": [
        {
          "internalType": "bytes32",
          "name": "",
          "type": "bytes32"
        }
      ],
      "stateMutability": "view",
      "type": "function",
      "constant": true
    }
  ],
  "bytecode": "0x608060405234801561001057600080fd5b50336000806101000a81548173ffffffffffffffffffffffffffffffffffffffff021916908373ffffffffffffffffffffffffffffffffffffffff16021790555060006001819055506109de806100686000396000f3fe608060405234801561001057600080fd5b50600436106100b45760003560e01c80638220239611610071578063822023961461024d578063a69beaba1461028f578063d22932ed146102d5578063d82d6ffe14610317578063d8bff5a514610359578063ef0ff76b146103b1576100b4565b80631a0478d5146100b9578063230d6ed8146100ff57806325742f5e1461012d578063704802751461018557806370a56eed146101c9578063775a8f5e1461020b575b600080fd5b6100e5600480360360208110156100cf57600080fd5b81019080803590602001909291905050506103cf565b604051808215151515815260200191505060405180910390f35b61012b6004803603602081101561011557600080fd5b81019080803590602001909291905050506103ef565b005b61016f6004803603602081101561014357600080fd5b81019080803573ffffffffffffffffffffffffffffffffffffffff1690602001909291905050506104f7565b6040518082815260200191505060405180910390f35b6101c76004803603602081101561019b57600080fd5b81019080803573ffffffffffffffffffffffffffffffffffffffff1690602001909291905050506106b0565b005b6101f5600480360360208110156101df57600080fd5b8101908080359060200190929190505050610764565b6040518082815260200191505060405180910390f35b6102376004803603602081101561022157600080fd5b810190808035906020019092919050505061077c565b6040518082815260200191505060405180910390f35b6102796004803603602081101561026357600080fd5b8101908080359060200190929190505050610791565b6040518082815260200191505060405180910390f35b6102bb600480360360208110156102a557600080fd5b81019080803590602001909291905050506107ae565b604051808215151515815260200191505060405180910390f35b610301600480360360208110156102eb57600080fd5b8101908080359060200190929190505050610917565b6040518082815260200191505060405180910390f35b6103436004803603602081101561032d57600080fd5b8101908080359060200190929190505050610966565b6040518082815260200191505060405180910390f35b61039b6004803603602081101561036f57600080fd5b81019080803573ffffffffffffffffffffffffffffffffffffffff16906020019092919050505061097e565b6040518082815260200191505060405180910390f35b6103b9610996565b6040518082815260200191505060405180910390f35b60046020528060005260406000206000915054906101000a900460ff1681565b3373ffffffffffffffffffffffffffffffffffffffff166000809054906101000a900473ffffffffffffffffffffffffffffffffffffffff1673ffffffffffffffffffffffffffffffffffffffff1614806104935750600560003373ffffffffffffffffffffffffffffffffffffffff1673ffffffffffffffffffffffffffffffffffffffff16815260200190815260200160002060009054906101000a900460ff165b61049c57600080fd5b60016004600083815260200190815260200160002060006101000a81548160ff021916908315150217905550806006600060015481526020019081526020016000208190555060016000815480929190600101919050555050565b60003373ffffffffffffffffffffffffffffffffffffffff166000809054906101000a900473ffffffffffffffffffffffffffffffffffffffff1673ffffffffffffffffffffffffffffffffffffffff16148061059d5750600560003373ffffffffffffffffffffffffffffffffffffffff1673ffffffffffffffffffffffffffffffffffffffff16815260200190815260200160002060009054906101000a900460ff165b806105d357508173ffffffffffffffffffffffffffffffffffffffff163373ffffffffffffffffffffffffffffffffffffffff16145b6105dc57600080fd5b60046000600260008573ffffffffffffffffffffffffffffffffffffffff1673ffffffffffffffffffffffffffffffffffffffff16815260200190815260200160002054815260200190815260200160002060009054906101000a900460ff16610668577f6e6f6e650000000000000000000000000000000000000000000000000000000090506106ab565b600260008373ffffffffffffffffffffffffffffffffffffffff1673ffffffffffffffffffffffffffffffffffffffff1681526020019081526020016000205490505b919050565b3373ffffffffffffffffffffffffffffffffffffffff166000809054906101000a900473ffffffffffffffffffffffffffffffffffffffff1673ffffffffffffffffffffffffffffffffffffffff161461070957600080fd5b6001600560008373ffffffffffffffffffffffffffffffffffffffff1673ffffffffffffffffffffffffffffffffffffffff16815260200190815260200160002060006101000a81548160ff02191690831515021790555050565b60066020528060005260406000206000915090505481565b6000806000801b905082602082015250919050565b600060066000838152602001908152602001600020549050919050565b60006004600083815260200190815260200160002060009054906101000a900460ff166107de5760009050610912565b60046000600260003373ffffffffffffffffffffffffffffffffffffffff1673ffffffffffffffffffffffffffffffffffffffff16815260200190815260200160002054815260200190815260200160002060009054906101000a900460ff166108a65760036000600260003373ffffffffffffffffffffffffffffffffffffffff1673ffffffffffffffffffffffffffffffffffffffff16815260200190815260200160002054815260200190815260200160002060008154809291906001900391905055505b81600260003373ffffffffffffffffffffffffffffffffffffffff1673ffffffffffffffffffffffffffffffffffffffff168152602001908152602001600020819055506003600083815260200190815260200160002060008154809291906001019190505550600190505b919050565b60006004600083815260200190815260200160002060009054906101000a900460ff1661094357600080fd5b61095f600360008481526020019081526020016000205461077c565b9050919050565b60036020528060005260406000206000915090505481565b60026020528060005260406000206000915090505481565b60006109a360015461077c565b90509056fea2646970667358221220bed9b95f417f4595da31541b1c43944246a98b20ba9faf6d9e9733d443c688c064736f6c63430006000033",
  "source": "// SPDX-License-Identifier: MIT\npragma solidity >=0.6.0 <0.7.0;\n\ncontract Election {\n    address private host;\n    uint private nextID;\n    mapping (address=>bytes32) public votes;\n    mapping (bytes32=>uint) public voteTally;\n    mapping (bytes32=>bool) public candidates;\n    mapping (address=>bool) private admins;\n    mapping (uint=>bytes32) public candidateIDs;\n\n    constructor() public {\n      host = msg.sender;\n      nextID = 0;\n    }\n\n    //https://ethereum.stackexchange.com/a/4177\n    function toBytes(uint x) public pure returns (bytes32) {\n        bytes32 b = 0;\n        assembly { mstore(add(b, 32), x) }\n    }\n\n\n    function vote(bytes32 name) public returns(bool success){\n      if (!candidates[name]) {\n        return false;\n      }\n      if (!candidates[votes[msg.sender]]) {\n        voteTally[votes[msg.sender]]--;\n      }\n      votes[msg.sender] = name;\n      voteTally[name]++;\n      return true;\n    }\n\n    function addAdmin(address a) public {\n      require(host == msg.sender);\n      admins[a] = true;\n    }\n\n    function addCandidate(bytes32 candidate) public {\n      require(host == msg.sender || admins[msg.sender]);\n      candidates[candidate] = true;\n      candidateIDs[nextID] = candidate;\n      nextID++;\n    }\n    function getCandidateNextID() public view returns(bytes32) {\n      return toBytes(nextID);\n    }\n\n    function checkVoteByVoter(address voter) public view returns (bytes32 candidate){\n      require(host == msg.sender || admins[msg.sender] || msg.sender == voter);\n      if (!candidates[votes[voter]]) {\n        return bytes32(\"none\");\n      } else {\n        return votes[voter];\n      }\n    }\n\n    function checkTally(bytes32 candidate) public view returns (bytes32){\n      require(candidates[candidate]);\n      return toBytes(voteTally[candidate]);\n    }\n\n    function getCandidateByID(uint id) public view returns (bytes32) {\n      return candidateIDs[id];\n    }\n}\n",
  "sourcePath": "/Users/deoxi/my-first-blockchain/contracts/Election.sol",
  "compiler": {
    "name": "solc",
    "version": "0.6.0+commit.26b70077.Emscripten.clang"
  },
  "schemaVersion": "3.2.1",
  "updatedAt": "2020-07-15T05:44:54.129Z",
  "networkType": "ethereum",
  "devdoc": {
    "methods": {}
  },
  "userdoc": {
    "methods": {}
  }
}